:020000040800F2
:1000000073700430170500001305C5FF8545F6051C
:10001000637BB50089816378B5001705000013057F
:10002000C5002E950285971100189381A11717819D
:100030000018130121FD9302002073A0027D970296
:1000400000F8938222FC7390723097020000938232
:10005000A2177390C27E73E0C07E97020000938265
:10006000620E739052309302F00373B0523073E01B
:10007000513073F00232170500001305A50B9705E8
:1000800000009385250B6300B50217760100130667
:1000900026F663FAC5008322050023A0550011054A
:1000A0009105E3EAC5FE17750100130565F4970590
:1000B0000018938525F5171600181306E68F63FAC6
:1000C000C5008322050023A0550011059105E3EA30
:1000D000C5FE171500181305258E97150018938572
:1000E00065946377B500232005001105E36DB5FE27
:1000F00097100000E7802016172500001305850AD9
:1001000097200000E780800897200000E780400FDC
:1001100097100000E780A04F01458145971000002F
:0E012000E780807F97100000E780C05301A0A9
:100140005D7106C012C216C41AC61EC82ACA2ECCB9
:1001500032CE36D03AD23ED442DC46DEF2C0F6C2CF
:10016000FAC4FEC673D0E57E7350F67E73D0B67EB9
:10017000732520348A8597100000E7800026D2522C
:100180007390427CC25273901234B25273902234F4
:1001900082401242A2423243C2435245E245724675
:1001A00082561257A2576258F258064E964E264F64
:1001B000B64F6161730020300000000000000000B5
:1001C000000000005D7106C012C216C41AC61EC827
:1001D0002ACA2ECC32CE36D03AD23ED442DC46DECB
:1001E000F2C0F6C2FAC4FEC673D0E57E7350F67E46
:1001F00073D0B67EF390D07E73700430D252739079
:10020000427CC25273901234B252739022348240B4
:100210001242A2423243C2435245E24572468256DE
:100220001257A2576258F258064E964E264FB64FB6
:1002300061617300203001A00000411106C6B717AC
:1002400001406303F50863FBA702B71701409387DA
:1002500007406308F508B7270140938707806312BA
:10026000F5061305603097000000E780203613057F
:10027000603097000000E780E036A1A093870780F8
:100280006305F502B7170140938707C0631BF502AA
:100290001305303097000000E780403313053030FD
:1002A00097000000E780003429A81305203097004C
:1002B0000000E780A0311305203097000000E780A0
:1002C0006032B24041018280130540309700000047
:1002D000E780C02F1305403097000000E780803092
:1002E000CDB71305503097000000E780202E13058E
:1002F000503097000000E780E02EE1B7411106C6BC
:100300001305003097000000E780402C13050030F3
:1003100097000000E780002DB2404101828013F376
:10032000F50093F7050199C33363C3008147054E78
:10033000BD4F130F800293028004A14831A058C919
:1003400010C18507638A17033317FE00758F75DBAD
:10035000832E0500139627003398CF001348F8FF2B
:100360003378D8013316C30033660601E389E5FD0F
:10037000E39855FC18C9E9B70146854EBD4F130FE8
:10038000800293028004414E01A858C9232205012E
:10039000850711066388C7033397FE00758F6DDBF1
:1003A000832845003398CF001348F8FF33781801AD
:1003B000B318C30033E80801E389E5FDE39855FC71
:1003C00018C9E9B782800CC982804CC9828019C2E1
:1003D0000CC982804CC982804CC5828008456D8DD5
:1003E0003335A0008280084542054181828048451E
:1003F0006D8D3335A0008280484542054181828061
:100400002A8863400504B7070140DC431316050141
:10041000418237073000B376E5006388E60237078C
:100420001000698F31CB135705019376F7000D4704
:100430003317D7001347F7FF7D8FB707000FD98F0A
:1004400005A0B7070140DC4FD1B7370700F17D1792
:10045000F98FB708014083A64800758F23A2E800F2
:1004600091C5558112053315A600C98F6342080254
:10047000370701405CC382801357550112073317B9
:10048000E6001347F7FF7D8FB707000FD98FC9BF6D
:10049000370701405CCF828013F7350093172700A0
:1004A0003D473317F7008D4663EFB600B7060140AE
:1004B00090461347F7FF718F98C69846B317F5001B
:1004C000D98F9CC682809D4663EFB600B706014077
:1004D000D0461347F7FF718FD8C6D846B317F5003B
:1004E000D98FDCC68280AD4663EFB600B706014007
:1004F000904A1347F7FF718F98CA984AB317F500CF
:10050000D98F9CCA8280B7060140D04A1347F7FFB3
:10051000718FD8CAD84AB317F500D98FDCCA828048
:10052000370701401C4393F707F8CD8F12055D8D07
:1005300008C38280370701401C4393E707081CC3A8
:100540008280370701401C4393F7F7F71CC3828072
:10055000C167CD8F1CCD0CCD1CCD1C4D1C4D828098
:1005600013576500B71702403E97144385473395EC
:10057000A700558D08C3828013576500B717024046
:100580003E9714438547B397A70093C7F7FFF58FAE
:100590001CC3828013576500B71702403E9714436F
:1005A00085473395A700558D08C382801357650092
:1005B000B71702403E9714438547B397A70093C7E8
:1005C000F7FFF58F1CC3828013576500B7170240F1
:1005D0003E97144385473395A700558D08C3828005
:1005E00013576500B71702403E9714438547B397EA
:1005F000A70093C7F7FFF58F1CC38280371702400F
:100600001C53C166D58F1CD38280B71602409C5202
:1006100041777D17F98F9CD28280371702405C4367
:10062000F19BC98F5CC38280B7170240C8433189F0
:100630008280371702405C4393F7F7F0C98F5CC3A1
:100640008280371702405C4393F7F78FC98F5CC3F2
:100650008280B7160240DC4271771307F77FF98F6B
:10066000C98FDCC28280B7160240DC42370700F136
:100670007D17F98FC98FDCC28280B7160240DC4239
:100680003707C3DF7D17F98FCD8FC98FDCC282801A
:10069000B7160240DC5641774117F98FCD8FC98FCD
:1006A000DCD68280371702405C5793F7F7F0C98F8A
:1006B0005CD78280B7170240D4577D761306F60FB9
:1006C000F18ED4D7D857498FD8D78280B717024038
:1006D000D45745767D16F18ED4D7D857498FD8D7C1
:1006E0008280B7170240DC433747FFEF7D17F98F51
:1006F00015476301E5026368A7000D476368A7001B
:100700003A05C98F21A01D476306E500371702404F
:100710005CC382803A053177798DC98F3707001025
:10072000D98FEDB7B7160240DC42370740FF7D177F
:10073000F98FC98FDCC28280371702401C5393F7B0
:10074000F7CFC98F1CD38280B7160240DC560177E1
:100750007D17F98FC98FDCD68280B7160240DC5630
:100760003707FCFF7D17F98FC98FDCD6828093573E
:10077000650037170240BA979C4333D5A700058917
:100780008280371702405C53B7060001D58F5CD3D7
:1007900082809357650037170240BA979C4333D540
:1007A000A7000589828013576500B71702403E975E
:1007B000144385473395A700558D08C3828013578E
:1007C0006500B71702403E97144385473395A7004D
:1007D000558D08C3828013576500B71702403E97B6
:1007E00014438547B397A70093C7F7FFF58F1CC342
:1007F0008280411106C622C426C2F14763ECA700DD
:1008000063E1A7140A05B76701089387070E3E95B1
:100810001C41828793070580B5C38567938707903E
:10082000370410007D148564938414906314F502DA
:10083000268597000000E780C0F319E17D146DF86C
:1008400005651305159097000000E78080F23335A9
:10085000A000CDA80145FDA041647D144545970049
:100860000000E78000F119E17D146DF8454597001F
:100870000000E78000F03335A000E9A03704000451
:100880007D14856493841480268597000000E7809A
:1008900040EE19E17D146DF805651305158097008C
:1008A0000000E78000ED3335A00069A81304005074
:1008B000054597000000E780C0EB19E17D146DF855
:1008C000054597000000E780C0EA3335A0009DA8E9
:1008D000370410007D14654597000000E78060E94B
:1008E00019E17D146DF8654597000000E78060E828
:1008F0003335A00081A8370410007D146D459700A2
:100900000000E78000E719E17D146DF86D45970060
:100910000000E78000E63335A0002DA0370410006A
:100920007D14754597000000E780A0E419E17D146F
:100930006DF8754597000000E780A0E33335A0000F
:1009400011A00145B24022449244410182804111EC
:1009500006C622C4371402401C4093E717001CC08F
:10096000014597000000E78000E95C40370700C0C0
:100970003107F98F5CC01C403707F7FE7D17F98FF0
:100980001CC01C403707FCFF7D17F98F1CC01C40A2
:10099000370700EC7D17F98F1CC0B707FF001CC498
:1009A0005C543707F8FFF98F5CD4B2402244410110
:1009B000828013576500B71702403E97144385475E
:1009C0003395A700558D08C3828013576500B7176C
:1009D00002403E9714438547B397A70093C7F7FF9C
:1009E000F58F1CC38280C1476306F500130505809F
:1009F00019CD8280B71702409843944341767D1603
:100A0000F18E94C3B7060400558F98C38280B71740
:100A1000024098539453F99A94D31367470098D39C
:100A20008280C1476306F5001305058005C18280F9
:100A3000B71702409843944341767D16F18E94C3D4
:100A4000B706FCFFFD16758F98C38280B71702406A
:100A500098539453F99A94D36D9B98D38280371707
:100A600002401C43B7060800D58F1CC38280B7160E
:100A700002409C423707F8FF7D17F98F9CC28280A5
:100A8000371702401C430E051375F50F93F777F0E7
:100A90005D8D08C382800D89B7170240C8DB828054
:100AA0000111AA8737670108130747150C43504304
:100AB000144758472EC832CA36CC3ACE02C437073C
:100AC0000304130717203AC602C03AC23717024080
:100AD000584309830D8B0946B7167A009386062082
:100AE0006302C70437160240584211833D8B0C1035
:100AF0002E97034507FF33D5A600584221831D8B4F
:100B00002E97834587FE58422D831D8B10103297F8
:100B1000034707FE09466388C70C636CF60AF1E3D6
:100B20003685C1A0371702405843C166758F25CF5F
:100B3000371702405857758F05CF37170240545763
:100B40009182BD8A13861600585721839376F70049
:100B500013872600C546630BD700B7167A00938625
:100B60000620B3D6C602B386E60239A05147F5B7D0
:100B7000B7167A00938606203717024058573D8BE8
:100B80000507B3D6E60237160240584249833D8B2B
:100B90005042B70500206D8E01CE1367070105078F
:100BA000B306D70281B7B7163D0093860690E1BF22
:100BB0003946E366E6FE09073D466319C700139709
:100BC0001600369706078582BA9629BFB386E602D5
:100BD00011BF3355E500F51793B71700B307F04081
:100BE0007D8D056182803355B500E5BF411106C694
:100BF000B7570040938707C06307F508B757004011
:100C0000938707C063FBA702B7570040630AF50844
:100C1000B747014093870780631EF5001305E03056
:100C200097000000E780809A1305E03097000000ED
:100C3000E780409BB24041018280B74700409387E4
:100C400007406305F502B757004093870780E31319
:100C5000F5FE1305204197000000E780209713055B
:100C6000204197000000E780E097E9B713051041A5
:100C700097000000E7808095130510419700000061
:100C8000E780409645BF1305304197000000E7809C
:100C9000E0931305304197000000E780A09459BF0E
:100CA0001305404197000000E78040921305404142
:100CB00097000000E7800093B5BF411106C622C42B
:100CC00026C22A84AE84B7570040938707C0630DBD
:100CD000F506B7570040938707C063FEA702B757D2
:100CE00000406309F506B747014093870780631901
:100CF000F5060D4597000000E780C0DA93D7140091
:100D00003E95B3559502C205C1810CC4B240224440
:100D1000924441018280B747004093870740630FA8
:100D2000F500B7570040938707800145E318F4FCAE
:100D3000094597000000E780E0D6C9B7094597004C
:100D40000000E78020D65DBF094597000000E780DE
:100D500060D56DB7094597000000E780A0D479BF42
:100D6000014569BF58451377F79F58C55C45CD8F3E
:100D70005CC582805845FD76FD16758F58C55C456B
:100D8000CD8F5CC582801849F576FD16758F18C920
:100D90001C49CD8F1CC982805C450967D98F5CC511
:100DA00082805C4579777D17F98F5CC582805C45D0
:100DB000DD9BCD8F5CC582805C45ED9BCD8F5CC596
:100DC000828093F5F51F4CC1828048411375F51F51
:100DD00082801C49C19B1CC91C49BD89DD8D0CC981
:100DE00082805C4593E727005CC582805C45F59B6B
:100DF0005CC582805845FD769386F67F758F58C511
:100E00005C45CD8F5CC582801C491167D98F1CC998
:100E100082801C4971777D17F98F1CC982801C491B
:100E200093F7F7FD1CC91C4993F50502DD8D0CC92C
:100E300082805C4593E717005CC582805C4993E73C
:100E400087005CC982805C49DD9B5CC982801C494B
:100E5000056713070780D98F1CC982801C497D77DD
:100E60001307F77FF98F1CC982801C4993F7F78F0E
:100E70001376062093F60640558E93F505104D8E99
:100E80005D8E10C982801C4D41771307F70FF98FD3
:100E90001CCD184DA205C167FD17FD8DD98D0CCD58
:100EA00082805C4993E707025CC982805C4993F7C2
:100EB000F7FD5CC982805C4993E707015CC98280C9
:100EC0005C49BD9B5CC982805C4993E727005CC993
:100ED00082805C49F59B5CC982801C4D93F707F0CA
:100EE0001CCD1C4DDD8D0CCD82805C49ED9B5CC919
:100EF0005C499189DD8D4CC982805C4993F7F7EF9D
:100F0000CD8F5CC982805C4993F7F7DFCD8F5CC9D8
:100F100082805C4993F7F7FBCD8F5CC982805C4986
:100F200093F7F7F7CD8F5CC9828093D7650093F76D
:100F3000F73FAA9788433355B5000589828013D7B8
:100F400065001377F73F3A9518418547B397B70087
:100F500093C7F7FFF98F1CC1828093D7650093F781
:100F6000F73F3E9518418547B395B700D98D0CC121
:100F7000828013D765001377F73F3A95184185476C
:100F8000B397B70093C7F7FFF98F1CC1828093D73F
:100F9000650093F7F73FAA97944393D765013E9571
:100FA0001C4113D7050105453315E5007D8D19C595
:100FB00005453315B500758D3335A000828093D774
:100FC00065013E951841C1818547B397B70093C726
:100FD000F7FFF98F1CC18280411106C622C426C2C8
:100FE0002A84AE8493F7F50F5CC19D452285970056
:100FF0000000E780C0F375D92685B24022449244B0
:1010000041018280411106C622C42A849545228569
:1010100097000000E780A0F175D948401375F50FDF
:10102000B240224441018280B717002083A7079A6B
:1010300093D82700B70700D19843DC43BA86370816
:1010400000D10327080083274800F32500B0E38A76
:10105000E6FE370800D10326080083264800198ED3
:10106000F32700B0E369A6FE8D8F33F5C702330581
:1010700015033355C502B3D7C702B38717033E958F
:101080008280411106C6054597000000E78000FAFE
:101090001305400697000000E78040F9B240410187
:1010A0008280411106C6B717002083A7079A89835B
:1010B000B3B5A7021306803E81463385A702971079
:1010C0000000E7802089AA882E85B70700D19043C9
:1010D000D443370800D10323080083234800B30515
:1010E000C3403337B300B387D340998FE3E5A7FEFE
:1010F0006314F500E3E115FFB24041018280411124
:1011000006C6AA8537650108130505189710000063
:10111000E780001DF3251034376501081305051914
:1011200097100000E780C01BF325303437650108B5
:101130001305051A97100000E780801A01A0B71761
:101140000240DC4389838D8B05476388E7020947AA
:10115000638EE70291CB37170020B7177A00938789
:1011600007202320F79A828037170020B7177A00CC
:10117000938707202320F79A828037170020B7171C
:101180007A00938707202320F79A8280B7170240BE
:10119000DC434167F98FB5CFB7170240DC57F98FB1
:1011A000A5C7371702405C579183BD8B9386170004
:1011B000585721833D8B0907C5476305F704B717C7
:1011C0007A0093870720B3D7D702B387E702371790
:1011D000024058573D8B050733D7E702B716024048
:1011E000DC42C983BD8BD44237060020F18E9DC6F8
:1011F00093E707018507B387E7023717002023200D
:10120000F79A8280514765BFB7177A009387072006
:101210007DBFB7173D0013870790C9B7B946E3EB09
:10122000F6FC8907BD46639FD70093171700BA974E
:101230009396170093571700B6973717002023206F
:10124000F79A8280B307F702371700202320F79A16
:101250008280B717024098431367170098C3D8439A
:10126000B706FFE0B106758FD8C39843B706F7FEFF
:10127000FD16758F98C39843B706FCFFFD16758F52
:1012800098C3D843B70601DFFD16758FD8C323A6D0
:1012900007029843B706F7EAFD16758F98C337071C
:1012A000FF0098C794434167D98E94C37D173716C2
:1012B0000240B70602001C42F58F99E37D1765FFD7
:1012C000B71702409C4337070200F98F91E301A052
:1012D000B7170240D843D8C3D843D8C3D8431367FD
:1012E0000740D8C3D843B706C4DFFD16758FD8C3EF
:1012F000D843B7062920558FD8C3D857BD76758FE8
:10130000D8D7D857C166938616F1558FD8D798434A
:10131000B7060004558F98C3B71602403707000878
:101320009C42F98FF5DF371702401C43B7060010C7
:10133000D58F1CC3B7160240370700209C42F98F97
:10134000F5DF371702401C43B7060001D58F1CC3D9
:10135000B7160240370700029C42F98FF5DFB71736
:101360000240D843719BD8C3D84313672700D8C322
:10137000371702405C43A18BF5DF8280AD4763EAFB
:10138000A7000A05B71700209387479C3E950CC11C
:1013900082808567FD176303F5008280B717002000
:1013A00023AAB79EDDBFAA872D476378A7000567EC
:1013B0007D170145638CE700828093172500371560
:1013C00000201305459CAA9788438280B717002008
:1013D00003A5479FD5B793174501D1832D47636177
:1013E000F7028A07371700201307479CBA979C43D8
:1013F00095C7411106C682970145B24041018280DE
:1014000005677D176387E700B71700089387E70F25
:10141000CDB7B717002083A7479FD9BF014582806A
:10142000411106C6376601081306061BB765010899
:101430009385C51B376501081305851C97100000AF
:10144000E78000EAB765010893850517376501084D
:101450001305851E97100000E78080E8B71700206D
:1014600083A5079A376501081305C51F971000006B
:10147000E78000E7B24041018280B70700D2A38530
:10148000070003C707001377170E2380E70003C781
:1014900007001377F70F136787002380E700828028
:1014A000130870056361A81405486360B8140D48FB
:1014B000636FC81293182500370E00D2F2980568A2
:1014C0004698034328001373E30F23016800034386
:1014D00028001373F30FB3E565002301B8008345BB
:1014E000280093F5950F2301B8008345280093F554
:1014F000F50F06064D8E1376F60F2301C80003463E
:101500000E0005823D8A21CE328E914563F3C500DF
:10151000114E1373FE0F056646968345360093F50C
:10152000F50F05483318C8017D1842861378F80F67
:1015300063F3060136861376F60FA146B38666403E
:101540003316D600B396650093F6F60FB3D6664011
:10155000558E1376F60F8566C696A381C600B7062C
:1015600000D283C60600858213F8F6000D46636636
:1015700006059146338606418546B396C600FD169C
:10158000368693F6F60F6373D7003A861376F60F16
:1015900012068566C69603C736001377F70FA14576
:1015A000B38505413357B7403317B700518F1367E1
:1015B000F7001377F70FA381E60085CF411173275A
:1015C00070303AC632470A053A951CC18567BE9805
:1015D00083C7180093F7F70F93E71700A380F8006D
:1015E0000145410182807D5582807D5582807D55F7
:1015F00082808567BE9883C7180093F7F70F93E73B
:101600001700A380F80001458280411106C69700AB
:101610000000E78040A7B717002023A0A79A37450E
:1016200001401305058097000000E7802021970006
:101630000000E78020DFB71700209387479C938640
:101640004703371700081307E70F98C39107E39E76
:10165000D7FE97000000E78080E2B240410182801F
:10166000828082808280B7170020254723AAE79ACC
:101670007D55828073F0008173005010E5BF7D15A9
:10168000854763E6A7008967DCC101458280B717FB
:101690000020254723AAE79A7D5582800545828050
:1016A00005458280B7170020594723AAE79A7D5540
:1016B00082800145828019C17D558280411106C614
:1016C00022C42E8437450140130505809700000091
:1016D000E78080932300A4000545B24022444101E5
:1016E0008280AA87371700200325479AAA973717C1
:1016F0000020130707A263EDE700378700201307D8
:1017000007806369F700371700202322F79A828049
:101710007D5582807D558280011106CE22CC26CA5D
:101720004AC84EC652C456C22E89B28A97100000CB
:10173000E78040C039C963800A044A845699294A1F
:10174000B74901409389098019A883C504004E85D3
:1017500097000000E78080880504630E2401A284BE
:1017600083470400E39347FFB5454E85970000008B
:10177000E780C086D9BF5685F2406244D2444249D0
:10178000B249224A924A056182807D55F5B74111DE
:1017900006C622C426C20A05376401081304442180
:1017A0002A94084097F0FFFFE780C0DB4444004CD8
:1017B000A2860D46C145268597F0FFFFE78060B6FB
:1017C00080C8B24022449244410182809317250090
:1017D00037650108130545213E955C45184DD8CB6A
:1017E00082809317250037650108130545213E9532
:1017F0005C45184D98CB8280411106C622C426C292
:101800009317250037650108130545213E9540458E
:10181000044DA685228597F0FFFFE78060BC054652
:10182000098EA685228597F0FFFFE78080BAB24037
:101830002244924441018280411106C622C426C23C
:101840002A841305206097F0FFFFE780A0D11305DD
:10185000206097F0FFFFE780E0D01305E06097F08D
:10186000FFFFE78020D0930600200D46E145B71426
:1018700001401385048097F0FFFFE78080AA93065C
:1018800000400D4691451385048097F0FFFFE780E7
:1018900040A9228597F0FFFFE7808035F1659385A9
:1018A0000520228597F0FFFFE78060418145228572
:1018B00097F0FFFFE780404C8145228597F0FFFFBE
:1018C000E780A04C8145228597F0FFFFE780C04963
:1018D0008145228597F0FFFFE78060628145228580
:1018E00097F0FFFFE78060629145228597F0FFFF48
:1018F000E780C04CA145228597F0FFFFE780604B51
:10190000228597F0FFFFE7806049B240224492446D
:1019100041018280411106C6014597000000E78021
:1019200040E7014597000000E78080EA1305007D4D
:1019300097F0FFFFE7802077014597000000E780E0
:1019400080EA1305007D97F0FFFFE780C075D1BFE7
:101950009308050093870500130806001385060009
:101960001383080063940628B766010893868623CC
:1019700063F6C50E370701006378E60C1307F00F16
:101980003337C700131737003355E600B386A60078
:1019900083C60600130500023387E600B306E54060
:1019A000630CE500B395D70033D7E8003318D600B1
:1019B000B365B7003393D80093580801B3D6150325
:1019C00013160801135606019357030133F7150345
:1019D00013850600B305D60213170701B367F70096
:1019E00063FEB700B38707011385F6FF63E80701BD
:1019F00063F6B7001385E6FFB3870701B387B740E7
:101A000033F717031313030113530301B3D717035A
:101A10001317070133636700B306F6021386070046
:101A2000637CD300330368001386F7FF636603010A
:101A30006374D3001386E7FF131505013365C500F2
:101A4000930500006F00400E3705000113070001E9
:101A5000E36CA6F2130780016FF01FF36316060014
:101A6000130710003358C702370701006370E80CF2
:101A70001307F00F63740701130580003357A800A4
:101A8000B386E60003C70600130600023307A7006B
:101A9000B306E6406316E60AB387074193051000D4
:101AA0009358080113160801135606011357030132
:101AB000B3F61703B3D717039396060133E7E6008F
:101AC000330EF60213850700637EC7013307070153
:101AD0001385F7FF636807016376C7011385E7FF86
:101AE000330707013307C741B37717031313030104
:101AF00013530301335717039397070133E3670029
:101B0000B306E60213060700637CD30033036800C4
:101B10001306F7FF636603016374D3001306E7FF40
:101B2000131505013365C500678000003707000104
:101B300013050001E364E8F4130580016FF01FF45E
:101B40003318D80033D5E7003393D800B397D700C4
:101B500033D7E800935808013366F700337715034D
:101B60009317080193D707019355060133551503C1
:101B7000131707013367B700B386A7029305050063
:101B8000637ED700330707019305F5FF63680701FC
:101B90006376D7009305E5FF33070701B306D74007
:101BA00033F716031316060113560601B3D61603B0
:101BB000131707013385D702B367C70013870600E1
:101BC00063FEA700B38707011387F6FF63E80701E9
:101BD00063F6A7001387E6FFB38707019395050116
:101BE000B387A740B3E5E5006FF09FEB63E6D51838
:101BF0003707010063F4E6041307F00FB335D7008D
:101C0000939535003767010833D5B600130787234E
:101C10003307A70003470700130500023307B70087
:101C2000B305E5406316E50213051000E3EEF6EE9A
:101C300033B5C800134515006FF01FEF37070001DB
:101C400093050001E3E0E6FC930580016FF09FFB44
:101C50003358E600B396B6003368D80033DEE700A9
:101C6000935E0801B376DE03B397B70033D7E8007D
:101C70003313B6003366F7009317080193D70701B3
:101C800013570601335EDE039396060133E7E60041
:101C9000338FC70313050E00637EE7013307070187
:101CA0001305FEFF636807016376E7011305EEFF86
:101CB000330707013307E741B376D7033357D70319
:101CC00093960601338EE7029317060193D7070117
:101CD000B3E7F6001306070063FEC701B3870701E9
:101CE0001306F7FF63E8070163F6C7011306E7FF72
:101CF000B387070113150501B70E01003365C50051
:101D00009386FEFF3378D50013560501B376D300D2
:101D100013530301B387C741330ED802B306D6026B
:101D200013570E01330868023308D8003307070140
:101D3000330666026374D7003306D6019356070153
:101D40003386C60063E6C702E39CC7CEB70701002F
:101D50009387F7FF3377F70013170701337EFE00F1
:101D6000B398B8003307C70193050000E3FEE8DA33
:101D70001305F5FF6FF0DFCC93050000130500009D
:101D80006FF09FDA930E0500138305001308060019
:101D900093870600639A0622376701081307872393
:101DA00063FCC50CB7060100637ED60A9306F00FEC
:101DB00063F4C60093078000B356F6003307D700DC
:101DC00003470700B307F70013070002B308F74003
:101DD000630CF700B3151301B3D7FE0033181601D7
:101DE000B3E5B70033951E0193560801B3F7D5024A
:101DF000131608011356060113570501B3D5D50272
:101E00009397070133E7E700B305B602637AB7009B
:101E100033070701636607016374B70033070701DF
:101E20003307B740B377D7021315050113550501E2
:101E30003357D7029397070133E5A7003307E6022C
:101E4000637AE50033050501636605016374E50007
:101E5000330505013305E5403355150193050000B1
:101E600067800000B706000193070001E366D6F41F
:101E7000930780016FF05FF463160600930610006D
:101E800033D8C602B70601006376D8129306F00F66
:101E900063F4060193078000B356F8003307D700B8
:101EA00003460700B30503413306F600930700021B
:101EB000B388C7406386C70833181801B357C300F7
:101EC000B31513011353080133D6CE003366B600A1
:101ED0009315080193D5050133951E01B3D667020A
:101EE00033F7670293570601B386D502131707012C
:101EF0003367F700637AD70033070701636607018A
:101F00006374D70033070701B306D74033F766027F
:101F10001316060113560601B3D6660213170701FE
:101F2000B386D502B365C70063FAD500B385050152
:101F300063E6050163F4D500B3850501B385D5409B
:101F40009356080133F7D5029317080193D7070179
:101F500013560501B3D5D502131707013367C70020
:101F6000B385B702637AB7003307070163660701D9
:101F70006374B70033070701B305B74033F7D502E1
:101F80001315050113550501B3D5D502B385B70265
:101F90009317070133E5A700637AB5003305050100
:101FA000636605016374B500330505013305B5406B
:101FB0006FF09FEAB706000193070001E36ED8ECCB
:101FC000930780016FF05FEDE3ECD5E8B707010000
:101FD00063F8F6049308F00FB3B7D800939737006F
:101FE0003767010833D8F600130787233307070143
:101FF00083480700B388F80093070002338817412D
:10200000639A170363E46600E3ECCEE43385CE40C5
:10201000B305D340B3BEAE00B385D5416FF05FE4E6
:102020003707000193070001E3ECE6FA930780010C
:102030006FF01FFBB3571601B396060133EED700BE
:10204000335F1301B3D71E0133950E01935E0E016A
:10205000B31503013353DF03B3E7B70093150E0144
:1020600093D5050113D7070133160601B376DF03B5
:10207000338F65029396060133E7E600930603006B
:10208000637EE7013307C7019306F3FF6368C70167
:102090006376E7019306E3FF3307C7013307E741A0
:1020A0003373D7039397070193D707013357D703A8
:1020B000131303013363F300B385E50293070700AD
:1020C000637EB3003303C3019307F7FF6368C30163
:1020D0006376B3009307E7FF3303C30193960601CA
:1020E000370F0100B3E6F600B305B3401303FFFF5B
:1020F000B3FE66001357060193D6060133736600DC
:10210000B3876E0233836602B38EEE02B386E602B5
:10211000B38E6E0013D707013307D70163746700CE
:10212000B386E60113530701B306D300370301005A
:102130001303F3FF3377670013170701B3F7670043
:10214000B307F70063E6D500639ED500637CF50016
:102150003386C740B3B7C700B387C701B386F6401D
:1021600093070600B307F5403335F500B385D54036
:10217000B385A540B398150133D5070133E5A80011
:10218000B3D505016FF0DFCD930505009306000080
:102190001306000013050000173300006700C3EEAC
:1021A000130101FF23248100B77701083774010868
:1021B0001304C4FE9387C7FEB38787402322910090
:1021C0002326110093D42740638004029387C7FF1E
:1021D00033848700832704009384F4FF1304C4FF2F
:1021E000E7800700E39804FE8320C10003248100F8
:1021F000832441001301010167800000130101FFE6
:102200002324810023202101377401083779010834
:102210009307C4FE1309C9FE3309F94023261100B0
:102220002322910013592940630009021304C4FEBC
:1022300093040000832704009384140013044400D3
:10224000E7800700E31899FE377401083779010821
:102250009307C4FE1309C9FE3309F94013592940F5
:10226000630009021304C4FE9304000083270400E2
:102270009384140013044400E7800700E31899FED8
:102280008320C1000324810083244100032901002D
:102290001301010167800000130101FC2324C10226
:1022A0002326D1022328E102232AF102232C010351
:1022B000232E1103138605008325850093068102D2
:1022C000232E11002326D10097000000E78000078D
:1022D0008320C1011301010467800000371300202F
:1022E0000323839A130101FC2324C1022326D10274
:1022F0002322B1022328E102232AF102232C010325
:10230000232E110383258300930641021306050043
:1023100013050300232E11002326D100970000008F
:10232000E780C0018320C101130101046780000020
:1023300017F3FFFF67000337130101E12326111E86
:102340002320211F2324811D2320A11D138C050080
:1023500013090600232AD1002324811E2322911E63
:10236000232E311D232C411D232A511D2328611D9D
:102370002326711D2322911D232EB11B130D050051
:1023800097700000E780008783270500138507000A
:102390002328F10297900000E780C0E32326A102E2
:1023A0002328010E232A010E232C010E232E010EB9
:1023B00063060D0083278D03E38A07128316CC0082
:1023C000372600009397060193D70701B3F5C7009E
:1023D0006398050283254C06B3E7C600939707016F
:1023E000B7E6FFFF93D707419386F6FFB3F6D50014
:1023F0002316FC00939707012322DC0693D70701DD
:1024000093F687006388062E83260C016384062ECC
:1024100093F7A7019306A0006382D7309307C110FA
:102420002322F10E93880700B76701089387C73707
:10243000232CF100B76701089387874F130B09001E
:102440002324F10083470B002326010E2324010ED1
:1024500023200102232A0102232C0102232E010240
:102460002324010423260104232601006386072276
:1024700013040B00130750026384E73283471400F0
:1024800013041400E39A07FEB30464416306642155
:102490000327C10E8327810E23A06801330797000D
:1024A0009387170023A298002326E10E2324F10E20
:1024B0001307700093888800634CF72E0327C10030
:1024C00083470400330797002326E1006386071C37
:1024D00083441400A303010C13041400930DF0FFB4
:1024E00093090000130A00001309A005930A900045
:1024F000930BA002938C080013041400938704FE2E
:102500006364F9040327810193972700B387E700E9
:1025100083A707006780070093090000938604FDE6
:102520008344040093972900B387370193971700DA
:10253000B389F600938604FD13041400E3F2DAFE77
:10254000938704FEE370F9FC93880C0063860414FF
:1025500023069114A303010C930A1000930C10009E
:10256000130BC11423280100930D00002324010242
:1025700023220102232E0100937B2A0063840B0097
:10258000938A2A0013794A088327C10E631609002B
:10259000B3865941E34CD0680347710C630A0702C4
:1025A0000327810E9306710C23A0D8009387170090
:1025B000930610001307170023A2D8002326F10E5C
:1025C0002324E10E930670009388880063C0E650D0
:1025D000638A0B020327810E9306810C23A0D80087
:1025E00093872700930620001307170023A2D80023
:1025F0002326F10E2324E10E9306700093888800B1
:10260000E3C2E67213070008E306E946B38D9D4175
:10261000E346B05313770A10E31C07300327810EFB
:10262000B387970123A068011307170023A298011D
:102630002326F10E2324E10E9306700063C6E65CA8
:1026400093888800137A4A0063060A00B3845941CC
:10265000634E905C63D4590193890A000327C1003B
:10266000330737012326E100E39807588327010148
:102670002324010E638A07008325010113050D0041
:1026800097300000E78000339308C110130B04005B
:1026900083470B00E39E07DC8327C10E638407009A
:1026A0006F10D0378357CC0093F70704638407007B
:1026B0006F2080348320C11E0324811E0325C100A6
:1026C0008324411E0329011E8329C11D032A811D64
:1026D000832A411D032B011D832BC11C032C811C4C
:1026E000832C411C032D011C832DC11B1301011FD1
:1026F0006780000093050C0013050D009730000063
:10270000E7800081630405006F20002F8357CC0011
:102710009306A00093F7A701E392D7D08317EC00AC
:10272000E3CE07CE832641011306090093050C0072
:1027300013050D0097200000E78000712326A100FB
:102740006FF05FF713050D0097600000E780804A87
:1027500083274500138507002326F1049790000086
:10276000E78040A79307050013050D009384070039
:102770002324F10497600000E780C0478327850089
:10278000232EF102638404006F10C00B8344040005
:102790006FF09FD683440400136A0A026FF0DFD5FE
:1027A000B3046441E31664CF834704006FF01FD283
:1027B0001306410E93050C0013050D0097B00000A1
:1027C000E780C06BE31005EE9308C1106FF01FCFD8
:1027D00093778A0093880C00638407006F10800B46
:1027E000832741011305010B23289101938777006B
:1027F00093F787FF83A5070003A647009387870009
:10280000232AF10097300100E78080328327010BF3
:10281000832801012328F10E8327410B232AF10E7F
:102820008327810B232CF10E8327C10B232EF10E5E
:102830001305010F2328110197600000E780403342
:102840002326A10C93072000832801016314F500BF
:102850006F108049930710006314F5006F104064F7
:10286000930710066394F4006F20001B9307100475
:102870006394F4006F10D01E13F7F4FD9307F0FF7C
:102880002324E1026394FD006F20C02F930770049E
:102890006314F7006F20002E832BC10F23284105FE
:1028A000032E010F832E410F032F810F93670A1010
:1028B00063D40B006F109063232C0104138A07006C
:1028C0002328010003278102930760046314F700A3
:1028D0006F10506693075004232011056314F7000E
:1028E0006F200022930A010B9307010D1307C10CFF
:1028F0001308C10D93860D001306200093850A006E
:1029000013050D002328C10B2322C103232AD10B59
:102910002320D103232CE10B232EE101232E710B65
:1029200097500000E78080E8032781029307700436
:10293000032FC101832E0102032E410283280104CB
:10294000130B05006304F7006F20404C832701053B
:1029500093F71700638407006F2000218326C10DC1
:10296000B38766412320F1020327C10C930770044B
:10297000232EE100032781026314F7006F10D04D6E
:1029800003278102930760046314F7006F10907DA2
:102990008327C10183258102130610049387F7FF63
:1029A0002326F10C13F7F40F930600006398C5007B
:1029B0001307F7001377F70F93061000230AE10CB3
:1029C0001307B00263DA07000327C1019307100061
:1029D000B387E7401307D002A30AE10C1307900066
:1029E0006344F7006F20C0231305310E93050500E3
:1029F0009306A000130E300633E7D70213860500B6
:102A0000138807009385F5FF13070703A30FE6FE5E
:102A1000B3C7D702E3420EFF9387070393F6F70F7E
:102A2000A38FD5FE9307E6FF63E4A7006F20403D28
:102A30001307610D6F00800083C607002300D700D5
:102A40009387170013071700E398A7FE9307510E0B
:102A50001307610DB387C740B307F7001307410D94
:102A6000B387E740232CF102832681030327010269
:102A700093071000B38CE60063C4E7006F2040307A
:102A80008327C102B38CFC008327010593CAFCFF96
:102A900093DAFA4113FAF7BF136A0A10B3FA5C012A
:102AA0002324010223220102232E01008327810512
:102AB000639407006F10503C9307D002A303F10CFE
:102AC000930D0000938A1A006FF01FAB1306410E9E
:102AD00093050C0013050D0097B00000E780003A45
:102AE000E31805128327C10E9308C1106FF05FAE83
:102AF0000327810E938C1700832701029306100091
:102B000023A068019304170013898800E3D0F63CE2
:102B10009307100023A2F8002326910F2324910E7F
:102B200093077000E3C2977A8327C102032701034A
:102B300093841400B38CFC002322F9002320E900C5
:102B40002326910F2324910E930770001309890007
:102B5000E3C0977A8327010F938614009305010A37
:102B60002328F10A8327410F1305010B232ED100DF
:102B7000232AF10A8327810F2320010A2322010A35
:102B8000232CF10A8327C10F2324010A2326010ADB
:102B9000232EF10A97000100E78080468326C101B9
:102BA000832701029308890013870600938DF7FF9E
:102BB000E302053413081B00B38CBC012320090178
:102BC0002322B9012326910F2324D10E93077000ED
:102BD000E3C8D75493070901138724001389080019
:102BE00093880700032681039306410D2320D90013
:102BF000B30796012322C9002326F10E2324E10EF8
:102C000093067000E3D0E6A41306410E93050C0072
:102C100013050D0097B00000E7804026631A057E7B
:102C20008327C10E9308C1106FF0DFA19306000146
:102C30000327810E63C496006F10D05CB76601084D
:102C4000938E864E13090001130A7000138B0E0039
:102C50006F00C000938404FF6358990493870701B1
:102C60001307170023A0680123A228012326F10ED1
:102C70002324E10E93888800E35EEAFC1306410EEC
:102C800093050C0013050D0097B00000E780001FAE
:102C900063100578938404FF8327C10E0327810EF8
:102CA0009308C110E34C99FA930E0B00B387970079
:102CB0001307170023A0D80123A298002326F10EA2
:102CC0002324E10E93067000E3D6E6981306410E26
:102CD00093050C0013050D0097B00000E780001A63
:102CE000631805728327C10E6FF0DF9613050D0080
:102CF00097300000E78040B16FF04FEC03274101AF
:102D000093880C00A303010C8327070013074700D7
:102D1000232AE1002306F114930A1000930C1000FB
:102D2000130BC1146FF01F8483274101A303010C0F
:102D300093880C0003AB070013894700E3000B4E98
:102D40009307F0FF6394FD006F10400913860D0098
:102D50009305000013050B00232A910197700000D2
:102D6000E780C0A92328A10083284101631405003E
:102D70006F10503583270101232A210123280100E8
:102D8000B38C67418347710C93CAFCFF93DAFA4115
:102D90002324010223220102232E0100B3FA5C0145
:102DA000930D0000638A07FC938A1A006FF0CFFC32
:102DB0008344040093078006E38AF444136A0A04F8
:102DC0006FF08FF38326410193770A0293880C00FA
:102DD00003A7060093864600232AD100E39607281E
:102DE00093770A01E394077893770A0463840700D2
:102DF0006F10803B137A0A20E30A0A768327C1000A
:102E0000130B04002300F7006FF09F888344040035
:102E10009307C006E388F43A136A0A016FF0CFED16
:102E200003274101B787FFFF93C707832314F10CE2
:102E30009307470093880C00232AF100832C070096
:102E4000B767010893878734232AF102130900002A
:102E5000936B2A009307200093048007A303010CBF
:102E60009306F0FF6382DD20B3E62C0113FAFBF733
:102E7000639A061E63900D266398071093FC1B004F
:102E8000130B011BE3980C1A8347710C938A0D00F6
:102E900063D49D01938A0C0023280100232401029E
:102EA00023220102232E0100E39007F06FF0CFEC04
:102EB00093880C00136A0A0193770A02E388070AD1
:102EC00083274101138B7700137B8BFF832C0B002F
:102ED00003294B0093078B00232AF100937BFABF51
:102EE000930700006FF09FF793880C00936B0A0123
:102EF00093F70B02E38C070E83274101138B7700B6
:102F0000137B8BFF93078B00232AF100832C0B008C
:102F100003294B00930710006FF05FF48344040013
:102F2000136A0A086FF04FDD83440400136A8A00B5
:102F30006FF08FDC93880C00136A0A0193770A0202
:102F4000E38C070483274101138B7700137B8BFFEE
:102F500083274B00832C0B0013078B00232AE100EF
:102F600013890700E3C207069307F0FF930B0A00DB
:102F70006384FD02B3E72C01937BFAF7639E07009D
:102F800063920D02138A0B00930D0000930C000056
:102F9000130B011B6FF05FEFE310093893079000EC
:102FA000E3EC9737938C0C03A307911B138A0B0058
:102FB000930C1000130BF11A6FF01FED83274101E2
:102FC0008344040083A9070093874700232AF10064
:102FD00063D409D2B3093041136A4A006FF0CFD1EC
:102FE00083440400136A1A006FF00FD18347710CF9
:102FF00083440400639207D093070002A303F10CFB
:103000006FF08FCF83440400136A4A006FF0CFCE75
:103010009307B00283440400A303F10C6FF0CFCDFB
:103020008344040013071400639474016F10505A12
:10303000938604FD13040700930D000063E0DACCCF
:103040008344040093972D00B387B701939717002B
:10305000B38DD700938604FD13041400E3F2DAFE67
:103060006FF0CFC9930B0A0093061000E386D7F2E6
:1030700093062000638CD706130B011B1317D9018D
:1030800093F77C0093DC3C0093870703B36C9701B4
:1030900013593900A30FFBFE33E72C0113060B0075
:1030A000130BFBFFE31C07FC93F61B00638A060669
:1030B000930600036386D7061306E6FF9307011BFA
:1030C000A30FDBFEB38CC740138A0B00130B060063
:1030D0006FF09FDB130710006394E7006F1050132D
:1030E00013072000930B0A00E398E7F883264103B7
:1030F000130B011B93F7FC00B387F60003C707000F
:1031000093DC4C009317C901B3EC970113594900A4
:10311000A30FEBFEB3E72C01130BFBFFE39C07FCB3
:103120009307011BB38C6741138A0B006FF0DFD547
:1031300013075006E35E979A0327010F9305010AD0
:103140001305010B2328E10A0327410F2322110550
:103150002320F104232AE10A0327810F2320010AF7
:103160002322010A232CE10A0327C10F2324010A89
:103170002326010A232EE10A97000100E78040E898
:1031800083270104832841046310053C0327810E33
:10319000B76601089386863723A0D8009387170067
:1031A000930610001307170023A2D8002326F10E60
:1031B0002324E10E9306700093888800E3CEE62C6A
:1031C0000327C10C83260102635AD7640327010336
:1031D0008326C1029388880023ACE8FE0327810E72
:1031E000B387D70023AED8FE130717002326F10EAE
:1031F0002324E10E9306700063CEE67C03270102D0
:103200009304F7FF635090C4930600010327810ED7
:10321000E3D6962A13090001930C70006F00C000DA
:10322000938404FFE35C9928832681009387070138
:103230001307170023A0D80023A228012326F10E8C
:103240002324E10E93888800E3DCECFC1306410E96
:1032500093050C0013050D0097B00000E78000C235
:103260006318051A8327C10E0327810E9308C11026
:103270006FF01FFB33895941635A20B913060001CF
:103280000327810E63562607130E0001930B70006F
:103290006F00C000130909FF635C2E0583268100BF
:1032A000938707011307170023A0D80023A2C801A2
:1032B0002326F10E2324E10E93888800E3DCEBFC47
:1032C0001306410E93050C0013050D0097B0000086
:1032D000E780C0BA631E0512130E0001130909FF2F
:1032E0008327C10E0327810E9308C110E3482EFBEC
:1032F00083268100B38727011307170023A0D80076
:1033000023A228012326F10E2324E10E9306700048
:103310009388880063DCE6AE1306410E93050C002B
:1033200013050D0097B00000E78040B56312050E4D
:103330008327C10E9308C1106FF04FAD1306000133
:103340000327810E6354B607930B00011309700025
:103350006F00C000938D0DFF63DABB0583268100EB
:10336000938707011307170023A0D80023A2780131
:103370002326F10E2324E10E93888800E35CE9FC08
:103380001306410E93050C0013050D0097B00000C5
:10339000E780C0AE631E0506938D0DFF8327C10E27
:1033A0000327810E9308C110E3CABBFB832681006B
:1033B000B387B7011307170023A0D80023A2B801D1
:1033C0002326F10E2324E10E9306700093888800D3
:1033D00063D2E6A41306410E93050C0013050D00FD
:1033E00097B00000E78080A9631405028327C10E0F
:1033F0009308C1106FF00FA21306410E93050C0045
:1034000013050D0097B00000E78040A7630005A6F4
:10341000832B010163880BA893850B0013050D0016
:1034200097200000E78000596FF0CFA71306000136
:103430000327810E6344D6006F10004837660108E9
:10344000930E864E232081042322910413040D0041
:1034500093040C00130E000193027000138C0600FD
:10346000138D0E006F00C000130C0CFF635C8E0503
:10347000938707011307170023A0A80123A2C801FF
:103480002326F10E2324E10E93888800E3DEE2FC7C
:103490001306410E938504001305040097B0000045
:1034A000E780C09D6314057C130E0001130C0CFF14
:1034B0008327C10E0327810E9308C1109302700069
:1034C000E3488EFB93060C00930E0D00138C040052
:1034D000130D04008324410403240104B387D7009F
:1034E0001307170023A2D80023A0D8012326F10E2A
:1034F0002324E10E930670009388880063DEE6883B
:103500001306410E93050C0013050D0097B0000043
:10351000E780C096E31E05EE8327C10E9308C11015
:103520006FF08F871306410E93050C0013050D00F5
:1035300097B00000E7808094E31C05EC8327C10E60
:103540009308C1106FF00F8C0326C10C6350C06A42
:103550000327C101832601029304070063C8E638EC
:10356000635690020327810EB387970023A068015A
:103570001307170023A298002326F10E2324E10E3F
:103580009306700093888800E3CAE63C13C7F4FFF3
:103590001357F741B3F4E4000327C101B304974084
:1035A000634E90488326C10113770A40B30DDB00B8
:1035B000E31E07148324C10C0327010263C6E40041
:1035C00013771A00E302073C032701038326C10295
:1035D0001306700023A0E8000327810EB387D700ED
:1035E00023A2D800130717002326F10E2324E10E8F
:1035F000938888006354E6006F10402983260102F7
:103600003307DB00B38496403307B74113890400C6
:103610006354970013090700635820030327810EA2
:10362000B387270123A0B8011307170023A228019D
:103630002326F10E2324E10E930670009388880060
:1036400063D4E6006F10C02A1347F9FF1357F74100
:103650003377E900B384E440634490006FE09FFE59
:10366000930600010327810E63DA966413090001B3
:10367000930C70006F00C000938404FF6350996442
:1036800083268100938707011307170023A0D80022
:1036900023A228012326F10E2324E10E938888001B
:1036A000E3DCECFC1306410E93050C0013050D0042
:1036B00097A00000E780807CE31C05D48327C10E1F
:1036C0000327810E9308C1106FF01FFB93771A0038
:1036D000639007C423A2D8002326910F2324910EC0
:1036E0009307700063CE9722130727009388080181
:1036F0006FF04FCF6358B0CF130600016344B6019B
:103700006F10806C13070001130B70009384060088
:103710006F000001938D0DFF6350B71F9384140059
:1037200083278100938C0C012322E9002320F900D8
:103730002326910F2324910E13098900E35C9BFC3F
:103740001306410E93050C0013050D0097A0000011
:10375000E780C072E31E05CA832CC10E8324810E4C
:103760001309C110130700016FF0DFFA832641012E
:1037700093770A01138746006398071493770A0426
:103780006384076C8327410113090000232AE100A9
:1037900083DC07006FF08FF48326410193770A01E1
:1037A00013874600639E070C93770A04638C076AAD
:1037B00083274101232AE100839C070013D9FC41A0
:1037C0009307090063D207FAB33790013309204108
:1037D0003309F9409307D002A303F10CB30C9041D5
:1037E000930B0A00930710006FF08FE70327410146
:1037F00093F70B01930647006390070E93F70B04B2
:10380000638407628327410113090000232AD10042
:1038100083DC0700930710006FF04FE413771A0062
:10382000631407006FE01FE26FF05F9A93880C004B
:103830006FF0CFF093070003A307F11A130BF11AEF
:103840006FF08FE48327C10383440400639407006F
:103850006FE09FCA83C70700639407006FE0DFC96A
:10386000136A0A406FE05FC98326C100130B04008E
:1038700093D7F6412320D7002322F7006FE05FE1C2
:1038800083AC0600232AE10013D9FC419307090009
:103890006FF04FED0327410183270700130747000F
:1038A000232AE10003A6070083A6470003A7870099
:1038B00083A7C7002328C10E232AD10E232CE10E93
:1038C000232EF10E6FE0DFF683AC06001309000033
:1038D000232AE1006FF08FE0832C0700130900001A
:1038E000232AD100930710006FF04FD7938406006E
:1038F000E34A90C66FF09FC91387140093068900AE
:1039000083278100B38CBC012322B9012320F90055
:103910002326910F2324E10E9307700063DEE77ED8
:103920001306410E93050C0013050D0097A000002F
:10393000E780C054E31E05AC0327810E832CC10E23
:1039400093084111130717001309C1106FF08FA9D5
:1039500093880C00930B0A006FF08FD9B7670108AA
:103960009387873493880C00232AF10293770A0205
:10397000638C071283274101138B7700137B8BFF26
:10398000832C0B0003294B0093078B00232AF100A3
:1039900093771A00638E0700B3E72C01638A070050
:1039A000930700032304F10CA304910C136A2A006B
:1039B000937BFABF930720006FF04FCA93880C00E7
:1039C0006FF08FCF83441400136A0A0213041400AB
:1039D0006FE09FB21306410E93050C0013050D0016
:1039E00097A00000E7808049E31405A28327C10E59
:1039F0009308C1106FF09F80B76701089387C735A0
:103A000093880C00232AF1026FF05FF683441400C0
:103A1000136A0A20130414006FE01FAE93076000BE
:103A2000938C0D0063EEB77537680108938A0C001C
:103A3000232A2101130B08376FE0DFB29306000140
:103A40000327810E63DE9646930C0001930D7000F0
:103A50006F00C000938404FF63D49C4683268100DA
:103A6000938707011307170023A0D80023A298010A
:103A70002326F10E2324E10E93888800E3DCEDFC7D
:103A80001306410E93050C0013050D0097A00000CE
:103A9000E780C03EE31E05968327C10E0327810EF3
:103AA0009308C1106FF01FFB8326410193770A0131
:103AB000138746006384071C83AC060013090000CB
:103AC000232AE1006FF0DFEC1306410E93050C0092
:103AD00013050D0097A00000E780403AE31A059215
:103AE000832CC10E8324810E1309C1106FF0CF8384
:103AF0001306410E93050C0013050D0097A000005E
:103B0000E780C037E3160590832CC10E8324810E15
:103B10001309C1106FF00F84130B011B93070000F2
:103B200023288100232E910013040B00232231034C
:103B3000130B0C0093840C0093090900832CC10320
:103B400013FA0B40930AF00F138C08001389070037
:103B50006F0080021306A000930600001385040086
:103B60009385090097E0FFFFE780C0DE6380095A74
:103B700093040500938905001306A0009306000036
:103B8000138504009385090097E0FFFFE780C01FBD
:103B900013050503A30FA4FE130919001304F4FF72
:103BA000E30A0AFA83C60C00E316D9FAE30459FBC8
:103BB000639A09509307900063E6975093080C00AE
:103BC0009307011B130C0B00130B0400232E91030E
:103BD0008324C101832941020324010123202103FD
:103BE000B38C6741138A0B006FF00FAA0327810E75
:103BF000B76601089386863723A0D80093871700FD
:103C0000930610001307170023A2D8002326F10EF5
:103C10002324E10E930670009388880063C6E65063
:103C2000631E06148326010213771A003367D70038
:103C3000631407006FE01FA1032701038326C1025D
:103C400023A0E8000327810EB387F60023A2D80043
:103C5000130717002326F10E2324E10E93067000AC
:103C600063CAE65C938888006F008014832B01018F
:103C7000130D0400138C04006FF0CFF993770A043E
:103C8000638207208327410113090000232AE100F2
:103C900083DC07006FF0DFCF1306410E93050C00A5
:103CA00013050D0097A00000E780401D631205F684
:103CB0008327C10E9308C1106FF08FD08326810037
:103CC000B387970023A2980023A0D80013071700FA
:103CD0002326F10E2324E10E9306700063C4E60050
:103CE0006FE01F966FE05FF28327010F9305010AD3
:103CF0001305010B2328F10A8327410F2320010A12
:103D00002322010A232AF10A8327810F2324010A8F
:103D10002326010A232CF10A8327C10F232EF10A3F
:103D200097F00000E780C04E83280101E34A053484
:103D30008347710C13077004635C97403768010870
:103D4000130BC8332328010023240102232201027C
:103D5000232E0100137AFAF7930A3000930C3000F7
:103D6000930D0000639207846FE01F818327C100D9
:103D7000130B04002320F7006FE09F91032701033A
:103D80008326C1029388880023ACE8FE0327810EB6
:103D9000B387F60023AED8FE130717002326F10ED3
:103DA0002324E10E9306700063C6E648E34E063C0A
:103DB000832601021307170023A06801B387F600CA
:103DC00023A2D8002326F10E2324E10E93067000CF
:103DD00063C4E6006FE0DF866FE01FE313050B00AE
:103DE0002320910597700000E780C03E8347710C47
:103DF000934AF5FF93DAFA41232A2101232801008F
:103E00002324010223220102232E0100832801041E
:103E1000930C0500B37A5501930D000063840700ED
:103E20006FE09FF86FE04FF593F70B206386073C38
:103E30008327410113090000232AD10083CC070006
:103E4000930710006FF08F8193770A20638C0738F7
:103E50008327410113090000232AE10083CC0700D6
:103E60006FF0CF8793770A2063820736832741015B
:103E7000232AE100838C070013D9FC419307090032
:103E80006FF04F8E93770A206388073283274101B2
:103E900013090000232AE10083CC07006FF05FAF15
:103EA0008327C10F63C607368347710C130770045D
:103EB000E354972A37680108130B48346FF09FE8E2
:103EC00083268100B38797001307170023A0D8002B
:103ED00023A298002326F10E2324E10E93067000FE
:103EE0009388880063D0E6EC1306410E93050C001E
:103EF00013050D0097A00000E78040F8631A05D075
:103F00008327C10E9308C1106FF0CFE90327010288
:103F1000832C4102232E41012320810423223105D9
:103F2000232251038329810223246103B30BEB0075
:103F30000324C103032A8104832AC104930470006B
:103F400013090001130B0C0063880C08639809081F
:103F50001304F4FF938CFCFF0327810EB387470102
:103F600023A058011307170023A248012326F10EAE
:103F70002324E10E9388880063C0E4108346040084
:103F80003386BB41138C06006354D600130C060025
:103F9000635680038326810EB387870123A0B8016F
:103FA0009386160023A288012326F10E2324D10E26
:103FB00063C6D40E83460400938888001346FCFF32
:103FC0001356F6413377CC00338CE640634C8001C6
:103FD000B38DDD00E39C0CF6638609649389F9FFD9
:103FE0006FF09FF78326810E634889016F00C0053B
:103FF000130C0CFF635A890503278100938707017F
:104000009386160023A0E80023A228012326F10EA0
:104010002324D10E93888800E3DCD4FC1306410EE0
:1040200093050B0013050D0097A00000E78000E545
:104030006318056A130C0CFF8327C10E8326810EBB
:104040009308C110E34A89FB03278100B3878701E6
:104050009386160023A0E80023A288012326F10EF0
:104060002324D10E63C2D46A834604009388880057
:10407000B38DDD006FF01FF61306410E93050B00A4
:1040800013050D0097A00000E78040DF631A056468
:104090008327C10E9308C1106FF05FEE1306410E27
:1040A00093050B0013050D0097A00000E78000DDCD
:1040B00063180562834604008327C10E9308C1106C
:1040C0006FF0DFEF832781048325C104130900000B
:1040D0003304F440138607001305040097700000B2
:1040E000E780001883C51C001306A000930600009B
:1040F0003338B0001385040093850900B38C0C019C
:1041000097E0FFFFE78000856FF09FA69307900080
:10411000E3E097A66FF09FAA130717009388860025
:10412000138906006FE01FAC1306410E93050C00C7
:1041300013050D0097A00000E78040D4631A05AC7A
:104140000326C10C8327C10E9308C1106FF05FAD29
:1041500037680108130B88336FF0DFBE1306410E7A
:1041600093050C0013050D0097A00000E78000D117
:10417000631005AA8327C10E9308C1106FF00FC109
:10418000930C60006FF05F8A032701023308EB0095
:10419000B3049740B306B8411389040063D696CAA6
:1041A000138906006FF04FCA8327C100130B040068
:1041B0002310F7006FE0CFCD8327410113090000E2
:1041C000232AE10083AC07006FF08FFC83274101B5
:1041D000232AE10083AC070013D9FC4193070900AF
:1041E0006FE05FD88327410113090000232AE10013
:1041F00083AC07006FE09FCE8327410113090000C5
:10420000232AD10083AC0700930710006FE01FC57D
:104210009307D002A303F10C6FF05FC91306410EA0
:1042200093050C0013050D0097A00000E78000C562
:104230006FE04FC71306410E93050C0013050D00E8
:1042400097A00000E78080C36314059C0326C10C7F
:104250008327C10E0327810E9308C1106FF01FB58D
:10426000930700032304F10C9307800513672A00CA
:10427000A304F10C2328E10493073006232801004E
:10428000130BC11463CAB77F832BC10F93F7F4FDDF
:104290002324F102232C0104032E010F832E410F4E
:1042A000032F810F136A2A1063C60B44930710066D
:1042B000E380F41A930710046384F4006FE08FE046
:1042C000930A010B13850A00232A11052328C10B29
:1042D000232AD10B232CE10B232E710B97200100F5
:1042E000E78040A51306C10C97700000E780C09AD4
:1042F000138605009305050013850A009720010029
:10430000E78000838327010B930C010A130901093D
:104310002328F1088327410B1306010893050900A0
:10432000232AF1088327810B13850C002320C10465
:10433000232CF1088327C10B232001082322010825
:10434000232EF108B707FC3F2326F1082324010898
:1043500097F00000E78000008326010A032E410A3F
:10436000832E810A032FC10A93850C0013850A004E
:104370002328D10A2322D104232AC10B2322C103DB
:10438000232CD10B2320D103232EE10B232EE1017B
:104390002320010A2322010A2324010A2326010AD9
:1043A00097F00000E780C0C5032FC101832E0102F2
:1043B000032E41028326410483284105631605002C
:1043C000930710002326F10CB76701089387C735C0
:1043D0002322F1021387FDFF232E4105232291069C
:1043E0002326B107232AA107232C81072320810636
:1043F0002324310723281107130C0B00930B07000C
:10440000232E6107138D0600930D0E0093840E007A
:10441000130A0F006F00C00493850C0013850A0077
:104420002320C102232EF101232CF10B232EC10ADC
:104430002328610B232A310B2320010A2322010A9E
:104440002324010A2326010A97F00000E78040BBDD
:10445000938BFBFF938F040013060A00630A050E7B
:10446000B70703401306090093850C0013850A0063
:10447000232EF1082320A10B2322B10B2324910A20
:104480002326410B23280108232A0108232C010895
:1044900097F00000E78000EC13850A0097100100F8
:1044A000E7800042930505001304050013850A0008
:1044B0008329010B8324410B032B810B032AC10B9E
:1044C00097100100E78000518326010B03260104A9
:1044D000930509002320D1088326410B13850C0086
:1044E000232831092322D1088326810B232A91080E
:1044F000232C61092324D1088326C10B232E4109D3
:104500002326D10897000100E78080E68327410237
:10451000032B010A8329410AB386870083C606005C
:10452000832F810A0326C10A232A81052300DC0088
:10453000232271059307F0FF130C1C00130D0B00D1
:10454000938D090093840F00130A0600E396FBEC99
:104550008328010793030B00938209003709FE3F6C
:1045600093850C0013850A0023201103232E81005C
:10457000032AC10583244106032401062328710A66
:1045800023227106232A510A23205106232CF10BE2
:10459000232EF105232EC10A2320C1042320010A62
:1045A0002322010A2324010A2326210B97F000006D
:1045B000E780C0B1930B0C00832DC106032D41078A
:1045C000032C8107032BC10783298106832801025D
:1045D0006348A04C93850C0013850A0097F00000F7
:1045E000E78000A283280102631805008327C10128
:1045F00093FC170063960C4A83274104930600033B
:10460000138717003387EB0063C80700938B1B00E9
:10461000A38FDBFEE31C77FFB3876B412320F102FE
:104620006FE08FB403270102130C0B00032B8102F0
:10463000232E8102032AC1013307EB000324010466
:1046400083294104832A41026364B7016FE09FF626
:10465000930D07006FE01FF60327C1019307D0FFFA
:104660006344F70063D4ED029384E4FF93F7F4FD11
:104670002324F1026FE0CFB18347710C930D00004A
:10468000638407006FE04FF26FD01FEF0327C10173
:10469000832701026348F72883270105930C07004D
:1046A00093F71700638607008327C102B30CF70056
:1046B0008327010593F70740638607008327C1011D
:1046C0006340F04E93CAFCFF93DAFA41B3FA5C01FF
:1046D0009304700623240102232201026FE00FBD20
:1046E000832B0101130C0B006FE0DFD223280100A4
:1046F000138A0700B7070080B3CB77019307D00276
:10470000232CF1046FF09FBA1306410E93050B00A2
:1047100013050D0097900000E7804076E31205FC3A
:10472000834604008327C10E9308C110B38DDD00BA
:104730006FF05F8A930A010B9307010D1307C10CF9
:104740001308C10D93860D001306300093850A00EF
:1047500013050D00232011052328C10B2322C103BB
:10476000232AD10B2320D103232CE10B232EE1019B
:10477000232E710B97300000E780400303470500AC
:1047800093070003032FC101832E0102032E410270
:1047900083280104130B0500930C010A630EF7062E
:1047A0008327C10CB387B7013309FB0093850C0045
:1047B00013850A00232E11012328C10B232AD10BB4
:1047C000232CE10B232E710B2320010A2322010A43
:1047D0002324010A2326010A97F00000E780408283
:1047E0008328C10193060900631405006FE04F9709
:1047F0008326C10D63E426016FE08F961307000343
:1048000093871600232EF10C2380E6008326C10D2A
:10481000E3E826FF6FE0CF94930C010A93850C0028
:1048200013850A00232011052328C10B2322C1036D
:10483000232AD10B2320D103232CE10B232EE101CA
:10484000232E710B2320010A2322010A2324010AAB
:104850002326010A97E00000E780807A032FC10138
:10486000832E0102032E410283280104E30A05F28C
:1048700093071000B387B7412326F10C6FF09FF226
:104880009307D002A303F10C6FF0CFCA1306410EB9
:1048900093050C0013050D0097900000E780005E63
:1048A000630405006FE0DFB68324C10C8327C10ECB
:1048B0009308C1106FE09FD437660108930E864EAF
:1048C0006FE0DFC18347710C232A210123240102F9
:1048D00023220102232E0100938A0D00938C0D00E8
:1048E000930D0000638407006FE00FCC6FD0DFC82A
:1048F0001306410E93050C0013050D009790000060
:10490000E780C057630405006FE09FB08324C10CAB
:10491000032701028327C10E9308C110B3049740F7
:104920006FE09FD2832701020327C1029304700620
:10493000B38CE7008327C1016358F0428327010548
:1049400093F707406390072693CAFCFF93DAFA4176
:10495000B3FA5C016FF01FD837680108130B0834F5
:104960006FF04FBE832701050327C10193F717009E
:10497000B3E7B7016350E042639A0720832CC1017B
:10498000930460066FF09FFB930600FFB304C040E2
:10499000635CD60813090001930C70006F00C0001F
:1049A000938404FF6352990883268100938707014B
:1049B0001307170023A0D80023A228012326F10EF5
:1049C0002324E10E93888800E3DCECFC1306410EFF
:1049D00093050C0013050D0097900000E780004A36
:1049E000630405006FE0DFA28327C10E0327810E59
:1049F0009308C1106FF0DFFA9307F0FF2326F10050
:104A00006FD05FCBB7660108938E864E6FE00FAA1A
:104A1000930B0A006FE00FD9930700032304F10CF6
:104A2000930780076FF09F8483268100B3879700E8
:104A30001307170023A0D80023A298002326F10E05
:104A40002324E10E9306700063DEE6A01306410EF8
:104A500093050C0013050D0097900000E7800042BD
:104A6000630405006FE0DF9A8327C10E0327810EE0
:104A70009308C1106FF0CFB393851D0013050D008F
:104A80002328110197400000E7804051832801014D
:104A9000130B0500630005382328A1006FF0CFFE3B
:104AA0008327410513870B00232EF10C8327410236
:104AB00083C6FBFF03C6F7006390C602930500039D
:104AC000A30FB7FE0327C10D9307F7FF232EF10CA9
:104AD0008346F7FFE306D6FE138616009305900380
:104AE0001376F60F6386B600A30FC7FE6FF0DFB232
:104AF0008327410203C6A700A30FC7FE6FF0DFB1F3
:104B000013891D00930A010B1308C10D9307010DB2
:104B10001307C10C930609001306200093850A00B1
:104B200013050D002328C10B2322C103232AD10B17
:104B30002320D103232CE10B232EE101232E710B23
:104B400097300000E78080C6032FC101832E010249
:104B5000032E410283280104130B050033092B01A6
:104B6000930C010A6FF09FC43309BB01930C010A37
:104B70006FF0DFC363840D006FD01FD2930D100060
:104B80006FD09FD1930D60006FD01FD18327C102DA
:104B900093046006B30CF700B38CBC016FF01FDA0E
:104BA000930470060326C1031307F00F8347060022
:104BB0006382E7248326C1011305000093050000EA
:104BC00063DED700B386F64083471600638407048C
:104BD0009385150013061600E394E7FE232ED100FB
:104BE000232EC1022322B1022324A1020327810222
:104BF00083274102B387E70003278104B387E702D5
:104C0000B38C970193CAFCFF93DAFA41B3FA5C01C3
:104C10006FD0DFE983470600130515006FF0DFFB57
:104C20001307610D6398060013070003230BE10CC3
:104C30001307710D9306011B93870703B306D74033
:104C40002300F7009387D60D232CF1026FD0DFE10C
:104C5000930A010B13850A00232A11052328C10B8F
:104C6000232AD10B232CE10B232E710B971001006B
:104C7000E780400C1306C10C97600000E780C0017C
:104C8000138605009305050013850A00971001009F
:104C9000E78000EA8327010B930C010A130901093D
:104CA0002328F1088327410B130601089305090007
:104CB000232AF1088327810B13850C002320C104CC
:104CC000232CF1088327C10B23200108232201088C
:104CD000232EF108B707FC3F2326F10823240108FF
:104CE00097E00000E78000678326010A032E410A4F
:104CF000832E810A032FC10A93850C0013850A00B5
:104D00002328D10A2322D104232AC10B2322C10341
:104D1000232CD10B2320D103232EE10B232EE101E1
:104D20002320010A2322010A2324010A2326010A3F
:104D300097E00000E780C02C032FC101832E010201
:104D4000032E410283264104832841056316050092
:104D5000930710002326F10CB76701089387873467
:104D60002322F1026FF00FE7B38CFC40938C1C0000
:104D700093CAFCFF93DAFA41B3FA5C016FF09F9596
:104D80008327010593F71700639407006FD0DFCFE7
:104D90006FD01FCF639A0700930A10009304600638
:104DA000930C10006FF01F938327C10293046006D9
:104DB000938C1700B38CBC0193CAFCFF93DAFA41C1
:104DC000B3FA5C016FF01F91938608006FE05FB348
:104DD0008327410183AD07009387470063D40D000B
:104DE000930DF0FF83441400232AF10013040700FD
:104DF0006FD08FF023240102232201026FF01FDF06
:104E000093072000232CF1026FD01FC613890D00D9
:104E10006FF0DFD48357CC0093E707042316FC0020
:104E20006FD05F8837170020930705000325879A06
:104E300093060600138605009385070017D3FFFF2E
:104E40006700C34F83D7C50003AE450603D3E50013
:104E500083A8C50103A84502130101B893F7D7FF42
:104E600013070040232C8146231AF1001384050008
:104E70009307010793058100232A914623282147A0
:104E8000232E1146130905002326C107231B6100A9
:104E900023221103232601032324F100232CF100F4
:104EA0002328E100232EE1002320010297D0FFFFF9
:104EB000E780C04893040500635C05028357410105
:104EC00093F70704638807008357C40093E7070438
:104ED0002316F4008320C147032481470329014797
:104EE00013850400832441471301014867800000B3
:104EF000930581001305090097000000E780004931
:104F0000E30E05FA9304F0FF6FF05FFBB717002084
:104F100083A7879A130101FF232481002322910094
:104F200023261100930405001384050063860700FF
:104F300003A78703630407080317C4009317070137
:104F40009376870093D70701638A060883260401B6
:104F5000638A060A13F61700630806020326440153
:104F600023240400130500003306C040232CC40092
:104F7000638A06028320C100032481008324410048
:104F8000130101016780000013F62700930500005C
:104F900063140600832544012324B4001305000094
:104FA000E39A06FC93F70708E38607FC13670704F8
:104FB0002316E4001305F0FF6FF0DFFB13850700F5
:104FC00097100000E78040840317C400931707017F
:104FD0009376870093D70701E39A06F693F60701C5
:104FE0006386060893F74700639607048326040147
:104FF00013678700931707012316E40093D707016F
:10500000E39A06F413F6072893050020E304B6F4A8
:10501000930504001385040097400000E780C0D08A
:105020000317C400832604019317070193D70701D0
:105030006FF05FF283250403638005029307040485
:10504000638AF5001385040097100000E7808096BE
:105050000317C40023280402832604011377B7FD35
:10506000232204002320D4006FF09FF893079000C0
:1050700023A0F400136707042316E4001305F0FFD0
:105080006FF05FEFB777010803A787FE83278714C8
:10509000638C070403A747001308F001634EE8067A
:1050A0001318270063060502338307012324C3086E
:1050B00083A88718130610003316E600B3E8C8006B
:1050C00023A417192324D310930620006304D502C8
:1050D0001307170023A2E700B387070123A4B70033
:1050E00013050000678000009307C7142324F714FA
:1050F0006FF05FFA83A6C7181307170023A2E70013
:1051000033E6C60023A6C718B387070123A4B70058
:1051100013050000678000001305F0FF67800000A2
:105120008397C500130101FE232C81002326310142
:10513000232E1100232A91002328210193F68700B2
:105140001384050093090500639E061037170000BD
:105150001307078083A64500B3E7E7002396F50011
:105160006358D01803278402630E070C9397070136
:1051700093D70701B716000083A40900B3F6D70040
:1051800023A009008325C401639A06169306100024
:105190001306000013850900E70007009307F0FFDE
:1051A0006300F51A8357C400032784028325C401D2
:1051B00093F74700638E0700832644008327040388
:1051C0003305D540638607008327C4033305F540C4
:1051D000130605009306000013850900E700070089
:1051E0009307F0FF6310F51203A709008317C400AB
:1051F000630C07169306D0016306D700930660017F
:105200006316D70C8326040137F7FFFF1307F77FD8
:10521000B3F7E7002316F400232204002320D40070
:105220008325040323A09900638E050093070404DB
:105230006388F5001385090097000000E7808077F8
:1052400023280402130500008320C10103248101E7
:1052500083244101032901018329C10013010102B3
:105260006780000003A90501E30E09FC83A4050083
:1052700013970701135707011377370023A0250160
:10528000B3842441930700006314070083A74501FA
:105290002324F400634890006FF0DFFA3309A9007B
:1052A000E35290FA832744028325C40193860400C5
:1052B0001306090013850900E7800700B384A440A2
:1052C000E34EA0FC8357C4001305F0FF93E70704E7
:1052D0008320C1012316F4000324810183244101AA
:1052E000032901018329C100130101026780000025
:1052F00003A7C503E348E0E66FF0DFF403250405E8
:105300006FF01FEB8357C40037F7FFFF1307F77FDA
:10531000B3F7E700832604019397070193D707416A
:1053200013D7C7002316F400232204002320D4003F
:1053300093771700E38607EE2328A4046FF05FEE4F
:1053400083A70900E38007E61307D0016388E7021B
:10535000130760016384E7028357C40093E70704DF
:105360002316F4006FF05FEE37F7FFFF1307F77FA8
:1053700083260401B3F7E7006FF09FFA23A099009A
:10538000130500006FF05FEC130101FE232C810078
:10539000232E1100130405006306050083278503EF
:1053A000638007028397C500639807028320C101C9
:1053B000032481011305000013010102678000002E
:1053C0002326B10097000000E78000448325C10038
:1053D0008397C500E38C07FC1305040003248101B7
:1053E0008320C1011301010217030000670083D36A
:1053F000630C0506130101FEB7170020232C810062
:105400001304050003A5879A232E110063060500E7
:1054100083278503638C07028317C400639C0700FE
:105420008320C1010324810113050000130101023F
:105430006780000093050400032481018320C101DB
:1054400013010102170300006700C3CD2326A1004A
:1054500097000000E780403B8317C4000325C1008C
:10546000E38007FC6FF01FFDB777010803A587FEF7
:10547000B7550008938585381713000067004390DF
:105480001305000067800000B7F500089385C55537
:10549000171300006700C38E13050000678000002B
:1054A000130101FEB7570008232E1100232C8100A1
:1054B000232A91002328210123263101232441019D
:1054C000232251012320610103244500938787484B
:1054D000232EF5021307C52E930730002324E52E53
:1054E0002322F52E2320052E9307400013090500E3
:1054F0002326F400130680009305000023220406EF
:105500002320040023220400232404002328040071
:10551000232A0400232C04001305C405974000002F
:10552000E780403A37BB000883248900B7BA0008F7
:1055300037BA0008B7B90008130B4BE3938ACAE9DE
:10554000130ACAF2938989F9B7070100232064037B
:10555000232254032324440323263403232E8400CC
:105560009387970023A6F40013068000930500009C
:1055700023A2040623A0040023A2040023A4040001
:1055800023A8040023AA040023AC04001385C40547
:1055900097400000E78000330324C900B7070200EA
:1055A00023A0640323A2540323A4440323A63403A7
:1055B00023AE9400938727012326F40023220406B8
:1055C00023200400232204002324040023280400B1
:1055D000232A0400232C04001305C40513068000AD
:1055E0009305000097400000E780C02D8320C10193
:1055F0002320640323225403232444032326340357
:10560000232E84000324810193071000232CF90228
:1056100083244101032901018329C100032A810058
:10562000832A4100032B010013010102678000005F
:10563000130101FF23229100130680069384F5FFD6
:10564000B384C4022320210113890500232481008F
:10565000232611009385440797400000E7800094BB
:1056600013040500630205021305C500232004008E
:10567000232224012324A40013868406930500001A
:1056800097400000E78000248320C1001305040038
:105690000324810083244100032901001301010137
:1056A00067800000130101FEB7770108232821015C
:1056B00003A987FE23263101232E110083278903A6
:1056C000232C8100232A9100232441019309050002
:1056D000638C070A1309092E9304F0FF130A400094
:1056E00083274900032489009387F7FF63D80700C5
:1056F0006F00800813048406638097080317C400B2
:105700009387F7FFE31807FEB707FFFF938717009C
:10571000232204062320040023220400232404005F
:105720002326F40023280400232A0400232C040049
:1057300013068000930500001305C4059740000080
:10574000E780401823280402232A040223220404A9
:10575000232404048320C1011305040003248101D0
:1057600083244101032901018329C100032A810007
:10577000130101026780000003240900630E040086
:10578000130904006FF0DFF513050900970000000E
:10579000E78040D16FF01FF49305C01A138509000C
:1057A00097300000E780807F13040500630805023E
:1057B0001305C50023200400232244012324A40050
:1057C0001306001A9305000097400000E780800F41
:1057D00023208900130904006FF09FF023200900A3
:1057E0009307C00023A0F9006FF0DFF6B777010838
:1057F00003A587FEB7F500089385C555170300007C
:1058000067000358832785036384070067800000CF
:1058100017030000670003C967800000678000006D
:105820006780000067800000B717002003A5879AF3
:10583000B755000893850548170300006700034A21
:10584000B717002003A5879AB755000893858549A7
:105850001703000067008348130101FE232631016E
:10586000B7090020232C8100232A9100232821013D
:1058700023244101232E1100138A0500130905007A
:105880009389495997400000E780801103A7890058
:10589000B71700001384F7FE832447003304444104
:1058A00093F4C4FF330494001354C4001304F4FFAE
:1058B0001314C4006340F4029305000013050900AB
:1058C00097500000E780003783A78900B3879700CF
:1058D000630AF5021305090097400000E780800C79
:1058E0008320C10103248101832441010329010193
:1058F0008329C100032A810013050000130101025E
:1059000067800000B3058040130509009750000030
:10591000E78040329307F0FF630CF504B7170020CF
:105920009387879F03A7070083A68900B3848440D9
:1059300093E41400330487401305090023A2960062
:1059400023A0870097400000E780C0058320C101A5
:105950000324810183244101032901018329C1001A
:10596000032A810013051000130101026780000063
:10597000930500001305090097500000E780802B75
:1059800003A789009306F000B307E540E3D4F6F4DB
:10599000B716002083A6C69A93E717002322F700C4
:1059A0003305D540B716002023ACA69E6FF09FF2BA
:1059B000638E0512130101FF23248100232291002D
:1059C000138405009304050023261100974000006E
:1059D000E78000FD0328C4FF130784FFB7050020FC
:1059E0009377E8FF3306F7009385455983264600F1
:1059F00003A5850093F6C6FF6300C51C2322D600CD
:105A0000137818003305D6006312080A032384FFB5
:105A100003284500370500203307674083288700A7
:105A20001305C559B3876700137818006384A81459
:105A30000323C70023A6680023241301630C081E58
:105A400093E617002322D7002320F6009306F01FC9
:105A500063EAF60A93F687FF9386860003A545005E
:105A6000B386D50003A6060013D85700930710008D
:105A7000B3970701B3E7A700138586FF2326A70086
:105A80002324C70023A2F50023A0E6002326E60076
:105A9000032481008320C100138504008324410076
:105AA00013010101174300006700C3EF0325450000
:105AB00013751500631E050237050020B387D70054
:105AC0001305C5598326860093E817003308F700AD
:105AD000638EA6160326C60023A6C6002324D6007E
:105AE000232217012320F8006FF05FF66780000083
